:020000041000EA
:1000000000B5324B212058609868022188439860DF
:10001000D860186158612E4B002199600221596106
:100020000121F02299502B49196001219960352056
:1000300000F044F80222904214D00621196600F024
:1000400034F8196E01211966002018661A6600F04E
:100050002CF8196E196E196E052000F02FF8012189
:100060000842F9D1002199601B49196000215960AB
:100070001A491B48016001219960EB211966A021F2
:10008000196600F012F800219960164914480160C1
:100090000121996001BC002800D000471248134993
:1000A000086003C880F30888084703B5996A0420EC
:1000B0000142FBD001200142F8D103BD02B5186610
:1000C0001866FFF7F2FF186E186E02BD00000240BE
:1000D000000000180000070000035F00212200005C
:1000E000F4000018222000A00001001008ED00E03C
:1000F00000000000000000000000000074B24E7A12
:1001000000200420F7010010C3010010C5010010F9
:10011000C1010010C1010010C1010010C101001097
:10012000C1010010C1010010C1010010C701001081
:10013000C1010010C1010010C9010010CB01001065
:10014000CD010010CD010010CD010010CD01001037
:10015000CD010010CD010010CD010010CD01001027
:10016000CD010010CD010010CD010010CD01001017
:10017000CD010010CD010010CD010010CD01001007
:10018000CD010010CD010010CD010010CD010010F7
:10019000CD010010CD010010CD010010CD010010E7
:1001A000CD010010CD010010CD010010CD010010D7
:1001B000CD010010CD010010CD010010CD010010C7
:1001C00000BE00BE00BE00BE00BE00BEEFF3058054
:1001D000103800BEF2EB8871D0A30410ECA3041019
:1001E0003402001090A31AE700201F49086006C8D7
:1001F00081F3088810471D48006800282FD10DA4FE
:100200000ECC002902D000F012F8F9E71849194A7B
:10021000002000E001C19142FCD1174988471749ED
:1002200088471749884700BEFDE701C901C29A42C5
:10023000FBD37047ECA30410C0000020C41D0020B5
:10024000F0C004100000042000000420F0C00410DE
:10025000001004200010042000000000704709482E
:1002600003F018F80047000008ED00E0000000D09F
:10027000C81D002054380020411A0010BD03001092
:10028000751B00105756000006005250ABB3605368
:10029000A802041006005250861C0302B802041083
:1002A000060052505422A29DC40204100500525070
:1002B000DE65F468F0C00410F8B5C0460448054B8C
:1002C00010B5834203D0044B002B00D0984710BDDB
:1002D000C41D0020C41D002000000000064807497E
:1002E000091A8B10C90FC91810B5491003D0044B57
:1002F000002B00D0984710BDC41D0020C41D002055
:100300000000000010B5074C2378002B09D1FFF73F
:10031000D5FF054B002B02D0044800E000BF0123AD
:10032000237010BDA82300200000000098FF0310D8
:10033000054B10B5002B03D00449054800E000BF71
:10034000FFF7CCFF10BDC04600000000AC2300202A
:1003500098FF0310F0B50700083704000E0083B0C3
:100360000760002925D0080035F086FA0500030053
:1003700001900F280CD8012807D132782272002270
:1003800020006360FA5403B0F0BD0028F7D008E005
:100390000022200001A923F037FF0700019B206005
:1003A000A36038002A00310003F086FF019B276814
:1003B000E5E7014818F08EFD98FF031000B5A7B0DF
:1003C000164901AA03A8FFF7C5FF154902AA16A8F6
:1003D000FFF7C0FFE12316AA5B0203A909A800F0FA
:1003E0002FF8169818AB984203D01899013103F0F2
:1003F00079FF039805AB984203D00599013103F0CA
:1004000071FF0D230C220B2116A800F03DF8054AC0
:10041000054B16A800F06CF8F9E7C046CCFF0310B6
:10042000DCFF03106F1283C0CA21194010B50248C7
:1004300004F038FB10BDC046C037002008007047EC
:10044000F8B51D00030004000833036018330020D2
:10045000A36127002023160060602072E061183736
:10046000E054200023F012FF3800310023F00EFF8B
:1004700020002563F8BDC04610B5024804F012FB09
:1004800010BDC046C4370020F8B50400164E174F03
:1004900001250800266167610021C8260427A262A1
:1004A000E362002200232160A263E363E160216331
:1004B000A661E7616560A560606200F089F8A06AE6
:1004C00000F086F8E06A00F083F82A00636A2900E9
:1004D0009A40D0231B065A62A26A20009140E26A29
:1004E000596295405D62F8BDEA2E4454FB210940F3
:1004F000F0B514001D0007008369C06983B058433C
:10050000400003F005FA22002B0003F088F9009068
:1005100001913869796902000B0003F059F9020072
:100520000B000098019903F05CF902000B00002019
:10053000264903F056F900900191019B5B00590890
:1005400003F0FEF90022060000232000290003F03A
:10055000C7F900282DD07A680123B96A8B40002A98
:1005600023D1D0221206936100F0B6FDBC6BFD6B67
:100570000B000200F1178C4610001900001BA94166
:100580008C4510D801D186420DD801207C6A396B88
:10059000A040D0242406002915D160614842414181
:1005A000BA63FB63396303B0F0BDD0221206536116
:1005B000DAE7002200232000290003F07BF900285D
:1005C000F1D03A68C8E7A061E8E7C04680842E41D0
:1005D0000123D0228340120693629361094A40218D
:1005E0009446830063441A68C0004A408031114039
:1005F0008022520113431960034B9C46052360443B
:100600004360704704C0014000400140024B18683D
:100610008007C00F7047C04600C0064070B5EFF3BA
:10062000108C72B60D4D2B68002BFCD0BFF35F8F82
:100630000724CB08C618C05C01230C40A3401C0053
:100640000440034207D118433070BFF35F8F2C6022
:100650008CF3108870BD100001F0ACFA2C0100D0B2
:100660000021044B044ABFF35F8F02C39342FAD1C7
:100670007047C046000100D0800100D0044A1078C5
:10068000431CDBB2172B00D9102313707047C046F0
:100690003C12002001238340002904D0034A136048
:1006A000034A13607047034A1360FBE780E200E0EF
:1006B00000E100E080E100E0024B10309B68800028
:1006C000C058704700ED00E070B50D00EFF31086E4
:1006D00072B60F4A1368002BFCD0BFF35F8F0D4B2F
:1006E00010309B6884001B590B4A934203D09D42F3
:1006F00001D001F077FA074B9B681D51BFF35F8F64
:10070000BFF35F8F0022024B1A6086F3108870BD22
:10071000240100D000ED00E0CD010010F0B5DE4670
:1007200057464E464546E0B50C0083B0EFF31088BF
:1007300072B65D4A1368002BFCD0BFF35F8F5B4B32
:100740005B499A68030010339F00D5598D4239D018
:10075000A5424AD0574EAA1B2F2A33D801229246CF
:10076000824091464846544A1268104001904846DB
:10077000524A1060BFF35F8FEFF305829346002A61
:1007800035D0934201D001F02DFA2A0053469A4306
:100790009068844208D175E04B005B189B00F31809
:1007A0009868A04234D01A00062151560029F3DA85
:1007B000844253D0019B002B26D04A46404B1A60FE
:1007C0003D4B1A60394B9B68DD51BFF35F8FBFF320
:1007D0005F8F0022344B1A6088F3108803B0F0BC9E
:1007E000BB46B246A946A046F0BD0D00EAE72A0086
:1007F00053469A4390688442D6D10620105613007F
:10080000002809DA0D0031E04A462C4B1A60D9E77E
:1008100006201856002822DB42001118890074189F
:100820008A46A1689960E179D9710621615699716A
:10083000002925DBA488F11A6405241554440919FC
:10084000E0240905490D24022143998013181D4A0B
:100850009B001178F31899711070ABE7130059469B
:10086000002914D1FF3191711749918015490A78F7
:100870009A71164A9B1B5B415A43120D0A7099E705
:100880001349E2E70620105613000028C4DA114A83
:100890001149D21A083A5002400D014399800F497C
:1008A00052080A43DA8085E7240100D000ED00E019
:1008B000CD0100104012002000E100E080E100E0E6
:1008C00080E200E05138002001BDFFFFAAAA00002D
:1008D00001BD00007A12002000F0FFFF00F8FFFFCA
:1008E00070B5EFF3058101240443EFF3108C72B669
:1008F000214A1368002BFCD0BFF35F8F1F4B05000C
:100900001F4AED1A6D416A43120D1E4D8900AE68F3
:1009100052B27658A6421CD00621595691421CD09C
:1009200012215956914222D01E215956914220D06F
:100930002A2159560324914210D0134B19781A706A
:100940008171BFF35F8F00220B4B1A608CF310880C
:1009500070BDAB680D4C5C50EFE7002461000919D5
:1009600089005B18FF21997109499980E5E7012405
:10097000F4E70224F2E7C046240100D04012002030
:10098000AAAA000000ED00E051380020CD010010BF
:1009900001BDFFFF054B064A1360064A1360536012
:1009A0009360D3601361536193617047808080804E
:1009B00000E400E004E400E0024B9C46614489004E
:1009C000016070474000003410B50400FFF756FE88
:1009D00001002000FFF7F0FFFF232371BFF35F8FBB
:1009E00010BDC04610B50400FFF748FE010020000E
:1009F000FFF7E2FFFF23A380BFF35F8F10BDC04668
:100A000083680B4810B584466144624412010901B1
:100A100059189B185C684A680120944201D802D09A
:100A20000020C0B210BD1A680B689A42F9D8F7E7E7
:100A3000FFFFFF0F0A4B1968EFF3108072B60A68C8
:100A4000002AFCD0BFF35F8F1B68BFF35F8F0022CB
:100A50001A6080F3108840BF002000217047C04614
:100A60003C380020F8B5574645464E46DE46E0B5D0
:100A700098460CAB1C780DAB1B78070091469A4644
:100A80000568002C5ED1AC7B002C3BD06600296849
:100A90003619033E89194B78AB73002B00D1EB73E9
:100AA00000238B704B700B702D4BE218BB6812014A
:100AB0009B184A461A6042465A600A9A9A600B9AF4
:100AC000DA6000238B704B700B706B7B9B46002BA6
:100AD0002BD022005946A8686B6898472A680028DE
:100AE00016D05B4658465B005B449619033BB070DA
:100AF000D118D35C002B00D073705B460C706B7305
:100B00005C4513D0F0BCBB46B246A946A046F8BD32
:100B10005B465B005B44033BD3189C709119925D6C
:100B2000002A00D05A705B460B706C734A464346ED
:100B3000387D00F055FB051E0AD10E9B002BE1D03D
:100B40001D70DFE7660029683619033E8919ABE797
:100B50005346002BF1D12100386800F065FDECE729
:100B6000FFFFFF0FF0B5DE4657464E4645460023D1
:100B7000E0B58BB00893684B8200D45800239B46A5
:100B8000099000F0A9FA02000B006068EFF3108AE8
:100B900072B6564601680029FCD0B246BFF35F8F9B
:100BA00021684F7B8C46002F2ED0A5685B49A94653
:100BB00079180901894449460868496805000E000A
:100BC000AD1A9E41002E5FDD02000B00099800F077
:100BD00007FB002300229946002306920793002377
:100BE00098466368BFF35F8F5A461A608AF310888D
:100BF0004346002B12D10028C3D10BB0F0BCBB463A
:100C0000B246A946A046F0BD002300229946002323
:100C100006920793002300209846E2E7089B494686
:100C200018023843C047626805000E00EFF3108ACF
:100C300072B61368002BFCD0BFF35F8F002E41DB30
:100C40002B00334302D02369002B56D12368D97B74
:100C5000002905D01A68480041185218033A577005
:100C60009A7B002A00D19F73DF73E268013FD35D56
:100C70000133D3555B4623616368BFF35F8F5A46E8
:100C80001A608AF310887CE7002E02D1002D00D074
:100C90009AE70021604600F045FC4B461A685B6805
:100CA000069207934B469B6898464B46DB689946ED
:100CB000E368DB19013B1B7808931B0203432361A4
:100CC00000208EE72369002BC0D0069A079B802165
:100CD000521BB34109068B4202D30122104B5242F0
:100CE00000210491013103914946019141462000C0
:100CF00002970091FFF7B6FEBCE700F0EDF92A007D
:100D0000330012184B41802109068B42E8D301229F
:100D1000034B5242E4E7C04628380020FFFFFF0F94
:100D2000FFFFFF7F10B5144C6368002B04D00A212D
:100D30001248FFF741FE10BD2300114A1021206820
:100D400000F006FB032000F0BBF9032000F0B0FA2E
:100D500003200C4900F0FEF9FFF790FC0A4B9C467B
:100D600003232375D0231B061B6860446375074B60
:100D700080006060DC60DAE7881200203C380020E8
:100D8000010A0010650B00104000003428380020D4
:100D9000F0B557464E464546DE46E0B585B0019370
:100DA00010AB1B780600039300239A4698460092E6
:100DB0007268EFF3108B72B61368002BFCD0BFF390
:100DC0005F8F3568AC7B002C00D16FE067002B682B
:100DD0003F19033FDB195A78AA73002A00D1EA733E
:100DE0004B4AA118B2680901521800980199106085
:100DF00051600E9991600F99D16042469A705A7075
:100E00001A706B7B9946002B00D170E02200494696
:100E1000A8686B6898472A6800285BD04B4648460C
:100E20005B004B44D719033BB870D118D35C002B3F
:100E300000D07B704B460C706B734C4558D0F368F8
:100E40001B19013B18787368BFF35F8F42461A6025
:100E50008BF310885346002B08D10002204305B0C5
:100E6000F0BCBB46B246A946A046F0BD039B002B92
:100E70004BD00E9B00200F999847030004000D00F3
:100E80000B4342D000291ADA009A019B121BAB4196
:100E90000092019380221206934204D301231D4C39
:100EA0005B4200930194039B9A4681E77368BFF30A
:100EB0005F8F1C608BF3108801204042CFE700F069
:100EC0000BF9802224184D41120600940195954299
:100ED000E9D3E3E74B465B004B44033BD3189C70DC
:100EE000D119D25D002A00D05A704B460B706C733A
:100EF000307D009A019B00F073F9824600289ED055
:100F00002100306800F090FB99E70020A7E7C04679
:100F1000FFFFFF0FFFFFFF7FF0B5EFF30583CE4626
:100F2000474680B505000C0085B0002B0DD0324A35
:100F30000020536A9C4203D8926A0130AA4232D3FD
:100F400005B0C0BCB946B046F0BD2C4E029301932B
:100F50002B4B0200009330000B00FFF719FF031E1C
:100F6000E5DD20BF7168EFF3108772B60A68002ACA
:100F7000FCD0BFF35F8FDAB294463068427B6245A3
:100F800016D0FF2201681A4089465100884649461A
:100F9000904441440339897800290BD13269934246
:100FA00010D131610EE0E31A5A1E9341D8B2C7E75F
:100FB000FF221A40F1681B0A8A18013A1278DBB244
:100FC0009A4214D07368BFF35F8F00221A6087F3D0
:100FD0001088094B00205A6A9442B1D89B6A0130AC
:100FE000AB42ADD2A41A631E9C41E0B2A8E76146B1
:100FF00000F01AFBE6E7C0460040054088120020DA
:10100000350A0010F0B5EFF30582D6464F46464646
:101010001000C0B51038EFF3108872B6214C236869
:10102000002BFCD0BFF35F8F0123190081401E4DC0
:101030001F006963AA461D4D29601D4D2E78AC46E0
:101040003500C5402F402B4215D053465F6A194BDF
:101050008500EB589F4218D36246174B8E43EB58DE
:101060001670BFF35F8F0022226088F31088002B78
:1010700006D0984704E0BFF35F8F276088F310889D
:10108000E0BCBA46B146A846F0BD0C4B92009C4667
:10109000624413681360BFF35F8F0023236088F3FB
:1010A0001088EDE7280100D0004005403C70054065
:1010B0005238002040380020C8370020D03F05407B
:1010C00010B5034B01001800024AFFF7A7FA10BD44
:1010D00050380020F8FF0310034B596A0A00986A41
:1010E000596A8A42FAD170470040054070B5040041
:1010F0000D00174A536A1900966A536A8B42FAD157
:101100003000190024184D41AB4216D813D0104BB3
:101110002A005B6A9D4203D90D494B6A9342FCD376
:10112000934207D10A4A02E0516A994202D1916A78
:10113000A142F9D370BDA642E9D9054B5B6A1C00F8
:101140005A1CEFD0012201246442E5175242E3E722
:101150000040054070B504000D00EFF3108672B634
:101160001A4A1368002BFCD0BFF35F8F002D1BD0F1
:101170002000FFF7A1FA164981420AD02000FFF7AC
:10118000A3FA01212000FFF785FA0123A340114AA9
:101190001360114BA400E550BFF35F8F00220B4B8F
:1011A0001A6086F3108870BD0121A1400A4BA2008D
:1011B000D5500A4B20001A788A4305491A70FFF768
:1011C000ADFA00212000FFF765FAE5E7280100D01D
:1011D0000510001038600540C83700205238002044
:1011E000F0B54F46D6464646C0B507002B4C616A5F
:1011F0000D00A66A616AA942FAD18B4208D805D0CF
:101200000120E0BCBA46B146A846F0BDB242F7D9CB
:10121000EFF3108A72B6224801680029FCD0BFF3B0
:101220005F8F0125BD401F491C4C884609788946BF
:101230002943C9B28C46414660460870391D890071
:1012400065630A511849B8004350216A00202942B9
:1012500019D0616A0800A66A616A8142FAD18B429C
:1012600019D801D1B24216D8CC450BD00B4B1F2256
:101270001D625D6301233A4093400C4A136043466C
:101280004A461A700120BFF35F8F0022044B1A6098
:101290008AF31088B5E70020F5E7C0460040054016
:1012A000280100D0523800204038002080E200E0C1
:1012B000EFF3108C72B60A490B68002BFCD0BFF319
:1012C0005F8F01238340074A0748136202789A43DD
:1012D0000270BFF35F8F00230B608CF310887047A0
:1012E000280100D0004005405238002070B50500AC
:1012F0000E001400002923D0002A12D080686B68E9
:101300009847296800280ED063001B197200033B20
:101310009219CB18033A9E7088188A5C002A11D162
:101320000470300070BD73009B196200033B1219FA
:10133000CB18033A9C7088188A5C002A05D1067085
:101340002000EFE75A700470EBE75A700670F7E779
:1013500030B583600023CCB2437301330473426021
:101360008373C4730D000068012C06D9421C01333D
:10137000DBB2137003329C42F9D1FF2129404B00AC
:101380005B18C01800230338437030BD70B50500EA
:101390000C1E07D0630001681B19033BCB185A7859
:1013A000002A01D1200070BD5000801803380918B0
:1013B00000204E784870210058702800FFF796FFF3
:1013C000310004002800FFF7E1FF0600002C26D0C2
:1013D0000028E7D021003200A8686B689847296888
:1013E00000280ED073009B196200033B1219CB1822
:1013F000033A9C7088188A5C002A00D05A700670E4
:10140000D0E763001B197200033B9219CB18033A13
:101410009E7088188A5C002A00D05A7004703400CC
:10142000C0E7C046F0B557464546DE464E46E0B5F5
:101430000D006F0001687F19033F0400C85D83B091
:101440000192CA19002850D043001B18033BCB1847
:101450005E78B446002E1AD1019E002E42D0E67B63
:10146000002E04D073009B19CB18033B5D70A37B47
:10147000002B00D1A573E57300282FD100235370F2
:1014800003B0F0BCBB46B246A946A046F0BD720010
:101490006244033A8A18517888460021517089467F
:1014A0005970320001002000FFF720FF43468246BA
:1014B000002B07D05B0021684344033BCB185A78CC
:1014C000002A16D1424651462000FFF70FFF21683F
:1014D000019BCA19002BC2D10028CFD043001B1892
:1014E000033BCB1800219970C8E7019B002BB6D1B4
:1014F000C4E75000801803380918487883464846E6
:101500004870587041462000FFF7F0FE594680466B
:101510002000FFF73BFF414602002000FFF7E6FEF8
:101520008046CFE7F0B557464546DE464E46E0B525
:1015300083B00191457B04006F0000687F19033F71
:10154000C15DC219002952D04B005B18033BC31880
:101550005E78B446002E1CD1019E002E44D0E67B5E
:10156000002E04D073009B19C318033B5D70A37B4E
:10157000002B00D1A573E573002931D10023280089
:101580005370617303B0F0BCBB46B246A946A04697
:10159000F0BD72006244033A821850788046002001
:1015A00050708146587032002000FFF79FFE43467E
:1015B0008246002B07D05B0021684344033BCB18D5
:1015C0005A78002A17D1424651462000FFF78EFE76
:1015D000019B01002068C219002BC0D10029CDD089
:1015E0004B005B18033BC31800209870C6E7019BB3
:1015F000002BB4D1C2E7500080180338091848788E
:10160000834648464870587041462000FFF76EFEFA
:10161000594680462000FFF7B9FE414602002000EF
:10162000FFF764FE8046CEE770B5050000292CD098
:10163000437B8B422ED04C0000686418033C041995
:10164000A278002A21D053009B18033BC25CC61825
:101650008A4202D11BE0002A08D053009B18033BAA
:10166000C3185A788A42F6D162785A700023012250
:101670002800A3706370FFF7D5FE697B0200280085
:10168000FFF734FE6873012000E0002070BD63782E
:101690003370EBE701221900FFF7C4FEF2E7C04602
:1016A00010B50C2082B000F0AFF9FEF7AFFF0028B4
:1016B00010D08B4B8B488B498B4A186059609860CF
:1016C000D960186159619861D961186259625A628A
:1016D00002B010BD854CA06700F09EF90122844B3A
:1016E0001A60636C012BFCD10322824B1A607F4A83
:1016F000936B012BFCD1013301217F4A7F4800937A
:10170000043300F031F905237D4A009301217D481F
:1017100000F02AF97C4B5A68FF2A02D88022520036
:101720005A608022734B6E4C12011A6021690029A5
:1017300007D0606901F008FE013043001B18033B2D
:10174000FDD2E022704B714819680A400260022203
:101750001968514001320A40042102609A6811421E
:10176000FCD080216A4A09011160802252005A602F
:10177000684B2361684B5968FF2900D85A600322DF
:1017800001215B4B1A60644A93681942FCD0E02344
:101790001068034061480360126803234A40022135
:1017A00013405D4A036093681942FCD080215C4B72
:1017B0000901196080215B4B4900516063615A4BFC
:1017C0005A68FF2A00D859608022584B12011A60CB
:1017D000E169002907D0606901F0B6FD01304300DE
:1017E0001B18033BFDD2E0234F4A11680B405049C0
:1017F0000B6080214F4B090119608021394B490052
:101800005160E3614C4B5A68FF2A00D8596080222E
:101810004A4B12011A60216A002907D0606901F061
:1018200093FD013043001B18033BFDD2E023424AE5
:1018300011680B4042490B608021424B090119603D
:1018400080235B0053608022264BD20223623E4BF2
:101850005968914200D25A6080223C4B12011A60B2
:10186000616A002907D0606901F06EFD0130430014
:101870001B18033BFDD2E023334A11680B40344967
:101880000B608021334B090119608023DB02536018
:10189000154B6362304B5A68FF2A02D880225200EF
:1018A0005A6080222D4B12011A60A169002907D0CD
:1018B000606901F049FD013043001B18033BFDD274
:1018C000E023254A11680B4025490B608021254BF8
:1018D0000901196080235B005360124BA361F7E696
:1018E00080200020006CDC021BB70000008000405C
:1018F0003CB0004030B00040002F685900800240EA
:10190000008C864700C0024030800040309000408C
:1019100030A00040001BB7003C8000403C900040DD
:101920003CA00040405973075480004054B0004030
:101930005490004054A000406080004060B00040DF
:101940006090004060A000406C8000406CB000409F
:101950006C9000406CA000404880004048B00040BF
:101960004890004048A00040F8B5040021481D0000
:1019700017000E0001F0E8FC0100380001F0E4FC63
:10198000069B29041B0319432368002B20DB1A4BF9
:101990001A4DE21853425A4180235B019C461203C0
:1019A000174B62441A60174B1A601700AB689F43CD
:1019B000FBD1C022231D92011A4321232660A0607F
:1019C00013602368002BFCDA0823E1601360F8BD84
:1019D0003F2322681340B342D9D1A3681B051B0DD6
:1019E0008342D4D1EE22E368D20213408B42CED19F
:1019F000EDE7C046001BB7000040FDBF00C000403F
:101A000000E0004000F000408023024A9B000343B6
:101A1000D362704700800540AA23064A1B01136069
:101A20002F230549D360054B19605368002BFCDA5E
:101A30007047C0460040024000B0FA00006002401B
:101A40002C4B2D4A70B51A602C4A2D4B2D491A602B
:101A500014008B689C43FBD12B4D2C4EB54208D211
:101A6000013E761BB60808CD984723000134B342E7
:101A7000F9D1FFF715FE264A214B1A60214A9368D7
:101A8000DB43DB01DD09002BF9D14022214B224C45
:101A9000224E9A675A671A67DA66B44208D22368F8
:101AA0002000002B20D00834FEF79CFFB442F6D370
:101AB0001B4C1C4EC022B168200002F0FDFBB4603C
:101AC000FEF7CEFDFEF766FFFFF72CF9164C174E1A
:101AD000B44208D2013E361BB60808CC98472B000A
:101AE00001359E42F9D170BD0834FEF76DFFB44256
:101AF000D5D3DDE700E00040BFCDFBFEFE7F3C001C
:101B000000F0004000C00040881D0020981D00200B
:101B1000FFFFFF0100F00140801D0020881D002014
:101B20000000002000ED00E0981D0020C41D0020F2
:101B300000BEFDE7094A03001068002805D00849E7
:101B4000C3188B4207D81360704706480449C3186E
:101B500010608B42F7D901204042F5E72038002081
:101B6000000004205438002000207047012040422B
:101B70007047C04610B5FFF7DBFFC04630B50D001B
:101B800083B01900002A0BD0074B084C0192009338
:101B900002002B00200001F03DFB0120FFF7C8FFF1
:101BA000034B1A00F1E7C0461C0004102C0004107F
:101BB000280004100FB400B5084883B002F040FCC0
:101BC000049B002B07D005A91800019101F042FBEE
:101BD000034802F035FC0120FFF7AAFF5C00041067
:101BE0006C00041010B50148FFF7E4FF700004100A
:101BF0009A4200D2885470477047C046F8B557469D
:101C00004546DE464E46E0B598460A9B06009A4693
:101C10000D9B0F00934615009B0710D10B9B0C9A50
:101C200093420CD213005C460B9A9D1A5D4422002D
:101C30004346013439002020B047A542F7D10B9C20
:101C40006319002C09D01D0053462A1B013C185D66
:101C500039004346B047002CF6D10D9B9B070ED5AB
:101C60005B46EC1A0C9BA34209D999462A004346CD
:101C7000390020200134B0470135A145F6D82800AD
:101C8000F0BCBB46B246A946A046F8BDF0B54F46EB
:101C90004646D646C0B584B098460EAB1B789446EF
:101CA0009946129B0D9C109F119E9A0724D4002EDA
:101CB0006AD1BC4220D201221A409246202C00D187
:101CC000CBE00C9A551E302201E0202C30D001349C
:101CD0002A55A742F9D85246002A0DD0B4420BD259
:101CE0000C9A551E3022202C02D126E0202C61D0E7
:101CF00001342A55B442F9D1DA0634D55A0562D4F2
:101D0000002C5CD10F9A102A00D191E0022A00D158
:101D1000A1E030220C9C227001244A46002A5CD1AA
:101D20005A0700D47DE02B220C9D2A5501341CE07B
:101D30005246002A02D0202E3CD92024DA0614D59F
:101D40005A0512D4202F00D197E0202E3BD1202617
:101D50001F2234000F9D102D00D181E0022D4CD0A8
:101D600030250C9FBD54202CD7D103930C9B624689
:101D70000093029643460194FFF740FF04B0E0BC95
:101D8000BA46B146A846F0BD012215001D40AA463C
:101D90001A4227D04A46002A33D10C321A4230D197
:101DA000BC429BD2202C00D08BE7202EC5D8DA066F
:101DB000A4D4DAE72024DA06D7D55A0503D4A742FB
:101DC00021D0B4421FD00F9A102A21D0022A10D05D
:101DD000202CCAD022000134C2E72D220C9D2A55A6
:101DE0000134C2E7BC4200D386E7202C00D068E76C
:101DF000E1E7202CB9D02200013462250C9FBD54AC
:101E0000E6E7013ECCE7621E012C00D17AE7A1E7AC
:101E10009A0616D4202CA8D078220C9D2A5501347D
:101E2000D6E71A07A1D520220C9D2A5501349CE73C
:101E30009A060ED478220C9C227030226270022402
:101E40006BE7202C91D058250C9A1219157001348B
:101E5000BEE75822EFE76222EDE7002AA7D1AAE702
:101E6000023C9D0604D478250C9F3D551400B1E733
:101E700058250C9F3D551400ACE71F226AE7C04669
:101E800010B5002800D110BD02F08EFAFBE7C04665
:101E9000F0B557464E464546DE46E0B599B0824617
:101EA000894690460993229A239B1000190001F05D
:101EB0001CFD002800D0C8E0229823990122D54BB0
:101EC000524201F00DFD002800D0BEE02298239977
:101ED0000122D14B524201F0EDFC002800D0B4E0C9
:101EE000229823990022002301F0E4FC002800D06E
:101EF000E9E1229E239F8023269ADB001A400D925F
:101F0000269A1A4201D1062324933B00334300D082
:101F1000B4E0269B1B0500D5BFE1002300240A93F3
:101F20000B94002304250C93259B0024AB4200D97D
:101F30005C1B0223269A1A400D92269A134203D064
:101F40006B426B415B421C400C9B002B07D00A9AF2
:101F50000B9B3000390001F044FC06000F00229872
:101F600023990022002301F0A5FC002803D0802142
:101F700009067B181F00269AA84B0096019713406C
:101F8000099E0493249B03940293424633004946DE
:101F9000504600F0A7F90400002D67D02020269AB3
:101FA0004946024013005A4253415B42621C1840AA
:101FB0000A92330022004530D0470C9A6F1ED31787
:101FC000D4185C40D30F9B46002501E0202D13D090
:101FD00008AA94461F23200063440A2101355E1994
:101FE00001F0B2F93031317020000A2101F0ACF972
:101FF00026000400092EE9D8052306930023049344
:102000000A3303935B46099E029310AB0A9A00932E
:1020100049463300504605970195FFF737FE0D9A64
:102020000400002A22D04246851A259AAA421DD9C8
:10203000B046574616002200434649462020013547
:10204000B8470134AE42F6D810E0269B42460493CE
:10205000259B49460393249B50460293229B239C35
:1020600000930194099B00F03DF90400200019B091
:10207000F0BCBB46B246A946A046F0BD684B78000E
:102080009C46400D604401F043FC664A664B01F0FB
:10209000C6FB664A664B01F09BFB664A3B031B0B83
:1020A0001A4304000D00644B11003000002201F0BF
:1020B00086FB624A624B01F0B2FB02000B0020007B
:1020C000290001F085FB01F03BFC0C9001F020FCA5
:1020D0005C4A5D4B04000D0001F0A1FB00225B4B4C
:1020E00001F076FB01F02CFC594A8346594B200045
:1020F000290001F094FB040058460D0001F008FC93
:10210000554A564B01F08BFB02000B0020002900C2
:1021100001F055FB02000B000A900B9101F07FFBD0
:1021200004000D000A980B9902000B0001F050FB0F
:1021300000220E900F914A4B2000290001F051FB24
:102140000022484B01F044FB02000B002000290054
:1021500001F047FB0022444B01F03AFB02000B0068
:102160002000290001F03DFB0A9A0B9B0D00802105
:102170000400C905002001F022FB02000B00200032
:10218000290001F025FB394C02000B000E980F9935
:1021900001F027FB5C440022264B01F019FB2305CC
:1021A000002201F03CFB04000D0002000B00300097
:1021B00039000A940B9501F07DFB00285ED12300C5
:1021C0002A00C6250C9963318D42AD4126996D4296
:1021D0000435090500D4A7E6134364D03000390064
:1021E000234A244B01F074FB002807D00022300062
:1021F0003900214B01F05EFB002854D1249B002BB9
:1022000000D191E60D9B5A1E9341249AD31A249330
:102210008AE6C046FFFFEF7FFFFFEFFFFFF7FFFFFC
:1022200001FCFFFFFB799F501344D33FB3C8608B81
:10223000288AC63F0000F03F0000F83F61436F630B
:10224000A787D23F71A379094F930A400000E03F6E
:102250001655B5BBB16B0240EF39FAFE422EE63F90
:1022600000002C400000244000001840FF03000044
:102270002D431CEBE2361A3F80842E410C9B00223A
:10228000013B0C932000164B290001F0AAFA0A002A
:10229000010003000A910B9293E7002300240A93A4
:1022A0000B9400230C93249A0C9B9A4214DDD31AAE
:1022B000013B24938023269ADB001A430023002548
:1022C00026920C9330E6802212069446229B1E0032
:1022D000239B63441F000EE600232493EAE7C046D5
:1022E00000002440F0B54546DE464E465746E0B570
:1022F00095B08B46904699461E9A1F9B0A901900EE
:102300001000209D01F0F1FA002800D0B0E11E98E5
:102310001F990122C74B524201F0CCFA002800D08D
:1023200037E11E981F990122C34B524201F0D8FA9F
:10233000002800D0A7E01E981F990022BF4B01F093
:10234000CFFA002800D088E01E981F990022BC4BCD
:1023500001F0B0FA002800D07FE01E981F990022FB
:10236000002301F0A7FA002800D0FAE000230B9325
:102370008023229C229ADB001C401A4200D102E1F9
:10238000092D00D87EE106A98C462C0017220023D7
:102390003021093C62440133D154EF1A202B00D183
:1023A00032E1A342F7D10022A44B069207931E9874
:1023B0001F9901F0C5FA050001F0AAFA02000B000E
:1023C0001E981F9901F0FBF9069A079B01F027FA66
:1023D0000890099101F0D8FA060001F095FA020080
:1023E0000B000898099901F0EAF90022954B089032
:1023F000099101F075FA002800D1D2E001363000D1
:1024000001F082FA069A079B01F062FA002801D0D7
:1024100000260135AA46002F00D098E0280001F0E0
:1024200077FA02000B001E981F9901F0C8F9854B3E
:10243000002206000F0001F03DFA0CAB9A4600287E
:1024400045D10022300039007E4B01F049FA0028C6
:102450003DD1EB073BD5013539E0229B4246049341
:10246000219B594603930A981E9B1F9C029500933B
:1024700001944B46FFF70CFD15B0F0BCBB46B246CD
:10248000A946A046F0BD229B5B0767D403226E4B92
:1024900022990192039121990291009342464B4661
:1024A00059460A98FFF7AAFBE6E706AA94461723BF
:1024B000280063440A2101341E1900F01DFF303149
:1024C000280031700A2100F017FF051E76D0202C5D
:1024D000EBD10323229A1340012B1DD1219B002B0A
:1024E0001AD00B9B002B00D0BBE0229A0C33134276
:1024F00000D0B6E0219BA34200D887E006AB9C4603
:1025000017223023624404E02199013413558C4290
:1025100059D0202CF8D12024229B01940393219B95
:1025200002935346B9E706AA944617230A21634447
:10253000300001341D1900F007FF303129703000E0
:102540000A21013F00F000FF092E46D90600202C89
:10255000E9D155460CAB20249A46B8E704223B4B00
:1025600096E71E9A1F9B0020002101F028F9012305
:102570000B938023229C229ADB001E901F911C400B
:102580001A4200D0FCE60022314B06270692079340
:102590000DE7229B0393219B0293042301932D4B70
:1025A0007BE7002208980999264B01F083F900285F
:1025B00000D02FE7002E4FD101362BE70323229ABC
:1025C0001340012B68D0202CA6D00B9B002B1FD0D2
:1025D0002D235246135501349EE75546202CB9D081
:1025E00030223B19002F4BD0172006A901340918BF
:1025F0000A55202CAED09C42F6D10CAA92462E222F
:1026000051465C1CCA5462E72024CCE6202C83D0BF
:10261000229B5B0708D4229B1B0700D47CE7202366
:1026200052461355013477E72B2352461355013494
:1026300072E7C046FFFFEFFFFFFFEF7F65CDCD41A3
:1026400065CDCDC10000E03F840004107C00041083
:1026500080842E418C000410F30700D4DAE60136A2
:10266000D8E6219B013B2193A34200D946E7AAE784
:10267000229B0393219B029303230193084B0CE7B6
:102680002300BAE7074BEA009B185C681B682F0021
:102690000693079400248AE6219B002B93D020E721
:1026A0008800041030020410F0B5DE4657464E464E
:1026B0004546E0B59FB01C00289B93460A93CC4A40
:1026C000CC4B8A4609901A60002900D14DE10023C5
:1026D00020789946002800D14FE1C74B4D4608931A
:1026E000C64B0D930AE02A006E1C5B46099D5146BD
:1026F000A847350001342078002872D02528F2D16F
:1027000010239946083B9846043B00219C4602272B
:102710000134207826000300203BDBB2102B03D8C5
:10272000089A9B00D3589F460300303B092B6ED973
:1027300000272A2800D18AE000230B932E2800D1FD
:1027400076E00300683BDBB2122B1BD8AC4C9B003D
:10275000E3589F46012301341943DAE73943013432
:10276000D7E7634601341943D3E74B460134194395
:10277000CFE7434601341943CBE780235B007078F1
:102780001943013667280AD824281FD90300253B9E
:10279000DBB2422B1AD80D9A9B00D3589F460300F8
:1027A000693BDBB20F2B11D801249C40954AA4460B
:1027B000904614400C9462464446224200D025E2E2
:1027C0000A2B00D101E1072B00D1D8E0099C2A0097
:1027D0005B465146A04770786F1C741C3D00002872
:1027E0008CD1A9462C00CB4503D801235B425B4426
:1027F00099465B464A4651460020099DA84720005D
:102800001FB0F0BCBB46B246A946A046F0BD0027AB
:10281000BB00DF1901367F003F183078303F0300DE
:10282000303B092BF4D900230B932E2800D088E7E6
:1028300080237078DB0019430300303B741C092BA4
:1028400000D82CE12A2800D138E1260079E70A9B3C
:1028500080CB002F03DB60780A93661C6CE70222B2
:10286000607811437F420A93661C65E7672800D1B0
:10287000C8E1472800D104E2452800D104E207203E
:102880000A9B04910733834319000B9A0397029222
:102890000CC90998009201930A912A005B4651469F
:1028A000FFF7F6FA741C050025E770786C2800D154
:1028B0000DE280235B001943013663E780239B0010
:1028C0007078194301365DE77078682800D1F9E126
:1028D00080230136194355E7462800D18FE10720B0
:1028E0000A9B04910733834319000B9A03970292C2
:1028F0000CC90998009201930A912A005B4651463F
:10290000FFF7F0FC741C0500F5E62A00099C5B4605
:10291000514625206F1CA0473D00741CEBE689073B
:1029200000D4DEE10A9B2A0098466B1C9946434678
:1029300001CB51469846099C5B46C0B2A047ED19B1
:10294000012F00D893E24C46B1465646099F22001B
:102950005B46013431002020B847AC42F7D1B24683
:1029600043464E460A93741CC5E6274B20780993CC
:1029700000239946002800D0AFE6002433E70A9BE5
:102980001A0008CA9046002B00D1A7E02120084376
:102990000EA98C461F2262440F27AC4681461500C3
:1029A0000C9C02E0202C0CD01300380018400100D1
:1029B0003731092800D80739013429551A090F2B56
:1029C000F0D8654648460C9494E00A9B1A0008CA61
:1029D00012920B9A002A7BD102241A786442002AB0
:1029E0001DD0013418199C461C00030010E0C0469D
:1029F000A92600102438002094000410240104109B
:102A0000D800041041900000F91B00109C4203D034
:102A1000607801340028F9D16346E01A0C908020D8
:102A2000C0008446084080466046014204D00B98AE
:102A30000C9C844200D90C900220844608400A90E5
:102A40006046084200D189E1101E00D170E1424683
:102A5000002A00D11BE10B9A5B1B9046A844444618
:102A60002A00B84699465746B246099E09E05B4699
:102A70003900551CB0474B46585D002800D12CE169
:102A80002A009442F3D156462500BA4647460A9B8F
:102A9000002B00D04CE1129B741C0A932BE6002201
:102AA00093009B185B0001341A182078303A030019
:102AB000303B092BF4D926000B9242E60A9B0236E2
:102AC00004CBD043C01702400B9230780A9338E60B
:102AD0001A78002AA3D00B98441E82E7102308001E
:102AE00080279843113318430B00FF003B403942C5
:102AF00000D14DE7082305930B9B2A000493102374
:102B00000393002302930C9B0690019316AB009352
:102B100051465B460998FFF7B9F843460500741C17
:102B20000A93E8E5622800D1A6E1582800D1B1E176
:102B300080230A00DB001A409046194200D189E147
:102B4000112399438C46802362469B001A40100053
:102B500062461A4200D023E1802364465B001C4099
:102B60001A4200D032E263465B0600D56BE1634651
:102B70000A991B0600D4DBE208C91BB2DA179818C1
:102B8000504080B20A91DA0F0C92002B00D118E26B
:102B900080460EAA91461F234B441395E1464546B5
:102BA0001297B0461E0001E0202C0FD028000A2109
:102BB00000F0CAFB013437193031397028000A217E
:102BC00000F0C2FB2F000500092FEDD84646CC4689
:102BD000129F139D634606930B9B059704930A234C
:102BE00003930C9B029316AB2A0001940093514669
:102BF0005B460998FFF74AF8741C05007BE5202323
:102C000019436CE680231B01194338E6782800D06D
:102C10007CE180230A00DB001A409146194200D172
:102C2000A5E20D239943080003330C93802302008F
:102C30009B001A409046184200D078E1802304009F
:102C40005B001C40184200D007E2430600D453E268
:102C5000FF210A9B04CB0A4090460A934346002B6F
:102C600000D026E1103398434B46002B00D120E1E1
:102C700000240B9B069004930C9B05970393002361
:102C8000B0E780231B01194320231943F7E55B1BA1
:102C900099460C9B099C98465B46B3465646BA46F5
:102CA0001F002A003B003100A0474B460135585D0C
:102CB0000028F6D143460C933B005746B2465E4689
:102CC0009B46E4E6C023B078194302365AE5C02398
:102CD0009B00B0781943023654E55646BA4647463B
:102CE000D5E6012F00D832E26B1E9846B8442C007E
:102CF000A9464546B8465746B246099E22005B465D
:102D0000013439002020B047AC42F7D10A9B564627
:102D100001CBBA464746984622005B46099C51467D
:102D2000C0B2A0474D464346ED190A93741CE2E435
:102D30000C9BA8469F4200D8ADE64446B046564696
:102D40007D19099FED1A22005B46013431002020D5
:102D5000B847AC42F7D1B24646469CE60C9887424B
:102D600000D8F0E1424698467919B9465746B2462E
:102D7000099E0C1A0C922A005B460135390020206E
:102D8000B047A542F7D15646BA464F4643460C9A3D
:102D900090467A1C0C921A78101E00D057E67AE6FC
:102DA0000822072191460A9B07338B4399444A46E0
:102DB0000ACB0C000A921C43DA0F002C4ED0D81715
:102DC000040010904C4011900E94109811990C0032
:102DD0005C400F940E9B0F9C1B1A8C410E930F941A
:102DE0000EA988461F23002443441297B0462700AB
:102DF00013951E000E9C0F9DE1460C9201E0202FC2
:102E000010D0200029000A22002300F0DBFA01374D
:102E100030322B00F2550D0022000400002BEED1C1
:102E2000092AECD84646CC460E940F950C9A3C00E5
:102E3000139D129F634606930B9B059704930A23E9
:102E400002920393CFE6FF230A9904C913401800A6
:102E50000A9198E6102399438C4674E64346002471
:102E6000002BE7D1002300240E930F94B8E74346CC
:102E70004D460A93741C3EE480230A00DB001A408E
:102E80009146194200D140E10D2399430B3B0800C4
:102E90000C93CBE680230A00DB001A4091461942CE
:102EA00000D162E10D2320209943033308430C93A2
:102EB000BCE66123810600D541230EA91F228C4662
:102EC000DBB262440A3B13971495814645460C9F3A
:102ED000B0461293160008E03033DBB201343355AC
:102EE000BD420ED3202C0CD005003900280000F084
:102EF0002BFACBB20929EFD9129A94466344DBB27C
:102F0000ECE746464846139F149DB2E66F2800D072
:102F10003CE10C230800984380230A00DB001A40A0
:102F20009146194200D02AE108230C937EE60A99C3
:102F3000FA3BFF3B0731994301339C468C4463467F
:102F40004A680A930B6890469C461343191E06D1A3
:102F50004B46103100248843002B00D089E66121C4
:102F6000830600D541210EAA91461F234B44994662
:102F7000C9B20C9B0A3913971495159645464E46CF
:102F8000002467469846814612910CE03032D2B256
:102F9000002301343255AB4200D1BCE0202C00D1DB
:102FA000BCE007000D00424600233800290000F075
:102FB00009FAD2B2092AE9D9129B9C466244D2B2DC
:102FC000E6E74346002B00D004E6E2E50A9C08CC85
:102FD000DA0F1392002B00D1A5E0D9175B184B40F4
:102FE00098460EAA91461F234B440C95A146454690
:102FF0001296E04606001C000A9701E0202E0FD032
:1030000028000A2100F0A0F90136A71930313970E3
:1030100028000A2100F098F92F000500092FEDD8AB
:10302000C4464C4630000A9F0C9D129E6346069390
:103030000B9B2A0004930A230393139B0190029392
:1030400016AB009351465B4609980597FEF71EFEA6
:103050000A940500741CFFF74EFB0A9B10CB1493D7
:10306000002C04D1102398434B46002B2CD1612314
:10307000810600D541230EA91F228C46DBB2624493
:103080000A3B12971395814645460C9FB0460A931A
:10309000160008E03033DBB201357355BC420ED365
:1030A000202D0CD004003900200000F04DF9CBB2E7
:1030B0000929EFD90A9A94466344DBB2ECE7484603
:1030C0004646129FA846139D0B9B2A0004930C9B17
:1030D00006900393002302934346019316AB00939B
:1030E00051465B4609980597FEF7D0FD149B0500F5
:1030F0000A93741CFFF7FFFA03061FD50A9B02CB45
:1031000009040A0C90460A93A8E50C2399430A3B4C
:1031100008000C938AE5B84500D83FE74846139F5E
:10312000149D159EA5E54346002B00D07EE758E789
:1031300008C9DA17981850400A9124E50A9B04CB75
:1031400090460A938AE5010001310C9124E60A9F1A
:103150006C1C01CF2A005B46099D5146C0B2A847AE
:1031600025000A97741CFFF7C6FA202319430C2385
:10317000994300239946103308000C9356E5082321
:103180008C460C930D23604698434FE510230A00AC
:103190009A439446692808D180230A00DB001A402C
:1031A0009046194200D1CEE4CAE41C23080098439B
:1031B00080230A00DB001A409146194202D10A23FB
:1031C0000C9333E50A230C93DCE7C0460EB40122CE
:1031D00030B584B007AC08CC064D0100009428003F
:1031E00052420394FFF760FA04B030BC08BC03B04D
:1031F0001847C046F11B001010B5054C82B0009373
:1032000013000A0001002000FFF74EFA02B010BDC3
:10321000F11B00100FB430B50C4985B008AA08CADC
:103220000D680392002D0CD000920122084C5242EE
:10323000200002A9A847012005B030BC08BC04B09A
:103240001847180001F0FCF80020F5E724380020AA
:10325000811E001010B5094A0300146884B0002CC8
:1032600008D0012200910648524203A9A04701203C
:1032700004B010BD01F0E4F80020F9E72438002084
:10328000811E001001480421014B1847B012002094
:10329000B5320010142310B50100188804331B88C0
:1032A000984710BD162310B50100188802331B88FB
:1032B000984710BDF8B54746CE4680B50F1E19D0C9
:1032C00014239946043304000025012698464B46F2
:1032D0001888434621681B88984701C4431E9841BB
:1032E000013540420640AF42F1D13000C0BCB94682
:1032F000B046F8BD0126F8E7124A936F9B0815D235
:103300009066D166002905D0FFE7FFE7FFE7516F20
:10331000106F704704B580210906C217514000287C
:1033200000D0C8433CF0E8FD002104BDF0B5146EA8
:10333000556E576F166FFFF7E3FF146655665767B4
:103340001667F0BD000000D0114A936F9B0813D29E
:1033500010665166002905D0FFE7FFE7FFE7516FD0
:10336000106F704704B5002801D00020C0433CF026
:10337000C3FD002104BDC046F0B5146E556E576FF5
:10338000166FFFF7E5FF1466556657671667F0BDC1
:10339000000000D094464A4A926F9208624601D2D9
:1033A00028E0C046F0B5464E346E756E776F366FC6
:1033B00000F020F89446424A14665566576716672F
:1033C0006246F0BD94463E4A926F9208624601D230
:1033D00054E0C046F0B53A4E346E756E776F366F76
:1033E00000F04CF89446364A1466556657671667DF
:1033F0006246F0BD002B24DB11D000293EDA00B577
:10340000C943404200D1013100F038F8C94340427D
:1034100000D10131DB43524200D1013300BD002A0B
:10342000EBD1002801D1002905D00020C90FC90720
:1034300001D1C043410800B53CF026FD0022002325
:1034400000BD00B500290ADBDB43524200D1013345
:1034500000F014F8C943404200D1013100BDC94316
:10346000404200D10131DB43524200D1013300F030
:1034700005F8DB43524200D1013300BD002923D1BE
:10348000002B18D1002A0CD0BC460D4F38667A6646
:1034900000210023FFE7FFE7FFE77A6F386F6746F9
:1034A0007047002801D00748010000B53CF0ECFC53
:1034B0000022002300BD02000B0000200021704705
:1034C000000000D0FFFFFFFF002B00D0BFE0130C77
:1034D00028D1002AE7D080B4114F39667A66FFE719
:1034E000FFE730B4040C7B6F396F1B0423433B664A
:1034F0007A66FFE7FFE7FFE7C04684B27B6F3D6F68
:103500001B0423433B667A66FFE7FFE7C0460023C0
:103510002C042D0C7A6F386F00196941B0BC7047CC
:10352000000000D0F0B594460025140E01D112021F
:103530000835140F01D112010435940F01D1920006
:103540000235D40F01D152000135D40B0134254F7F
:103550007C66254C3C660E0C93B2FFE7FFE7FFE765
:103560003C6F6643360C7703BE467343DF0B5B0448
:10357000C01AB941130C7343DB18C91ACE0866434D
:10358000360CB64493B273431F0F1B01C01AB941E6
:10359000130C73431F0B1B05C01AB941860D8F0214
:1035A0003E436643360C092D24DB520A7243801ACF
:1035B0007703460A6643360C16235B1BDE40DF406A
:1035C000BF1964466643821B70460435063301000A
:1035D000D940A840C01900D30131A24206D200232D
:1035E000F0BD0000000000D0FFFFFFFF121B013004
:1035F000F3D3F1E709277F1BFE406446A2B2724372
:10360000801A00D20139220C7243130C1204821A60
:1036100099410B007046043513370100F940A8406A
:10362000801900D30131002B02D1A2420AD2F0BD91
:10363000013000D30131121BFAD2013BF8D1A24272
:1036400000D2F0BD013000D30131121BF7E7F0B515
:103650001C0C00D080E00CB400251C0A04D11B0215
:10366000160E3343120208351C0B04D11B01160F32
:103670003343120104359C0B04D19B00960F334356
:1036800092000235DC0B02D192185B4101351C001F
:10369000971864410134464F7C66464C3C660E0CDC
:1036A000FFE7FFE7FFE7C0463C6F6643360C770352
:1036B000BE4697B27743C01B00D20139C01B00D26F
:1036C00001399FB27743C91BC91B170C77437E048E
:1036D000FF0B801BB941CE086643360C0C2D33DB43
:1036E000B644120B1F053A431B0B97B27743C01B1E
:1036F00000D201399FB27743C91B170C77433E04B0
:103700003F0C801BB941860D8F023E43664329273B
:103710007F1BFE400C3D7746AF40BF1930BCA2B2C4
:10372000ABB272437343801A9941220C7243130C5B
:103730001204801A994102000B000137001BA941B5
:10374000F9D2781E0021F0BD0C277F1BFE40774682
:103750007F0BAF40FF19E0E700245D1C07D0144F3A
:103760007D663966FFE7FFE7FFE7FFE73C6F95B24D
:103770009EB265436643401BB141150C1E0C654368
:10378000664336042F0C3E432D04401BB141994241
:1037900004D202000B0020000021F0BD01D19042B4
:1037A000F7D3801A994101349942F2D3F6E7000029
:1037B000000000D0FFFFFFFF48404140484018B4E0
:1037C0001B4B5B68FC46019308BD04DFF33A001015
:1037D00018B4174B1B68FC46019308BD00DFFD3A87
:1037E00000109446134A926F920809D2624618B4A8
:1037F0000F4BDB68FC46019308BD0CDFB53D0010A4
:103800000C4AF0B5146E556E576F166F6246FFF78F
:10381000EEFF084A1466556657671667F0BD18B480
:10382000034B9B68FC46019308BD08DF593C001020
:10383000A8210020000000D0FFB550404240504079
:1038400059404B40594000E0FFB5154F4C00640D06
:1038500003D0BC4204D10C0314D80020090D090583
:103860005C00640D03D0BC4204D11C030AD80022C2
:103870001B0D1B0501264B4009D44B4003D58B4241
:1038800000D18242FFBD9942FCD19042FFBD0B4363
:10389000DB1803431343F5D0C9434918FFBD0000AB
:1038A000FF07000000B5FFF7CFFF01D0002000BDEB
:1038B000012000BD00B5FFF7C7FF804100BDC04635
:1038C00000B5FFF7C1FF01D9002000BD012000BDF8
:1038D00000B5FFF7B1FF01D9002000BD012000BDF8
:1038E00000B5FFF7A9FF804100BD012040054A0057
:1038F000121804D85A00121801D80020704701206D
:1039000070470020704700000021002805D1704753
:10391000C1174840401AFAD0C90713B5064B1B68B7
:1039200098470CBC441CA2401005120B0349091B0C
:1039300009051943114310BD383800201F04000049
:1039400010B54C00620D8023D218DB00D21A5B0543
:103950007E2A10DD9E3A13DACC1709034908194371
:103960005242D140640001341532202A05DAD04099
:103970000843604310BD002010BD0846604310BDE1
:10398000C80FC018013810BD18B4044B5B6AFC4660
:10399000019308BD24DF653F00100000A82100202E
:1039A00018B4044BDB6DFC46019308BD5CDF71402D
:1039B00000100000A8210020C94211D300B5490021
:1039C0004908002200F018F8002904D400224042DF
:1039D0008A41114600BD80210906002000BD00007B
:1039E00018B4044BDB6EFC46019308BD6CDF733FDB
:1039F00000100000A821002018B4044B9B6FFC4667
:103A0000019308BD78DF8F3F00100000A82100203F
:103A100018B4044BDB6FFC46019308BD7CDFFD3F0F
:103A200000100000A8210020132370B51D78012D7F
:103A300015D010DD1D48FFF735FC1D4C010080221C
:103A4000200000F039FC022D2DD01A48FFF722FC8F
:103A5000194B186070BD194B154CA364F5E7174B53
:103A6000134C23606360A360E36023616361A3611F
:103A7000E36123626362A362E36223636363A3631C
:103A8000E36323646364A364E36423656365A365FC
:103A9000E36523666366A366E36623676367A367DC
:103AA000E367A364D1E7054BA364CEE7534400006A
:103AB000A82100204C33000038380020C13A001003
:103AC00007B5604601880A0A0230DF2AFAD1C9B276
:103AD000820804D3028840880004104300E0006894
:103AE000014A5050039007BDA82100200FB403BC29
:103AF0000CBCF0B50124E407634000E0F0B50C0D08
:103B0000CF0F661E3605891B640503D3C9434042A7
:103B100000D30131640D03D0661CF60A07D0E41B04
:103B200000207F00791C89078912803C24031D0D29
:103B3000DF0F6E1E36059B1B6D0503D3DB43524220
:103B400000D301336D0D03D06E1CF60A07D0ED1BB8
:103B500000227F007B1C9B079B12803D2D032F1BA7
:103B6000661B58D4A446202E46DA20371400BC40E9
:103B70001D00BD40F24033412A4380185941CB0F0C
:103B800005D0C943C04300226442504151416246BE
:103B90004D0D28D10D0D07D100281FD0241940410B
:103BA0004941013A0D0DF9D0640006D3013000D32C
:103BB0000131002C01D140084000013A0BD4941C83
:103BC000E40A04D112051144DB071944F0BDD907FA
:103BD000204B194300E0D9070020F0BD0029DDD1BA
:103BE000002CDBD1F0BD0132C6074008CD072843C9
:103BF0004908002EE1D0D9E73C2E29DA203E403793
:103C00001400BC4000D00124F24014431A00BB4011
:103C10001C43D317ACE7AC46202F08DA203604004B
:103C2000B4400D00B540F84039412843A5E73C2F8A
:103C30000CDA203F40360400B44000D00124F840A4
:103C400004430800B1400C43C117EAE71000190013
:103C5000002494E70000F07FF0B50C0D661E3605D9
:103C6000891BE60A6405640D02D0651CED0A04D0C8
:103C7000002001210905803C2403A4461C0D671E79
:103C80003F05DB1BE70A6405640D02D0651CED0AE5
:103C900004D0002201231B05803C240377406444A8
:103CA00097B484B296B27443070C7E43150C6F43ED
:103CB00080B26843361802D3012000043F18300454
:103CC000350C00197D41844688B29AB250430C0CE1
:103CD00062431F0C7C438EB27E43921902D30126AD
:103CE0003604A4191604170C3618674101BC81B2BA
:103CF0009AB25143040C62431B0C5C4380B258439C
:103D0000121802D30120000424181004130C4018C8
:103D100063412D185E410020474106BC88B293B232
:103D200058430C0C6343120C544389B251435B1843
:103D300002D301210904641819041A0C09186241FC
:103D40006D1856410020474118BCF902720D11430D
:103D5000F0026A0D1043ED020A0D03D16D194041C6
:103D60004941013B124E9B1B7600B3420ED26D00BF
:103D700007D30130002671416646354301D1400822
:103D800040001B05C918E4072144F0BD0BDA0133DC
:103D900006D1013004D101314F0D01D04908F2E7BD
:103DA000E1070020F0BD013631050020EBE70000FF
:103DB000FF030000F0B51C0D671E3F05DB1BE70A83
:103DC0006405640D02D0661CF60A04D000220123AB
:103DD0001B05803C2403D0252D060026F6432E66C5
:103DE0001E096E66CE0FF619B44649004F0D02D07B
:103DF0007E1CF60A03D000200021403F3F033E1BFB
:103E0000B600B444013F7F05C91B49082E6F013637
:103E100076089C02950D25437543ED137543AD134C
:103E200001356D10F603761B0CB4CC02450D2C4306
:103E3000A2B2B3B25A43270C7B43350C6F43A4B2F2
:103E40006C431B1902D3012424043F191C041D0CCC
:103E5000A4187D4124196D41009A91B2ACB261431E
:103E6000170C7C432B0C5F4392B25A43A41802D325
:103E700001221204BF182204230C52187B41019C1A
:103E80006C431B19520ED9010A434401A01A81B296
:103E9000B2B2514303145A43360C734387B277438B
:103EA000D617D21900277E4136049B191704160C29
:103EB0007F185E417316ED18F301002680337541BB
:103EC000A90F06D16400690AE8055B0A184309D204
:103ED0002FE00422944480337541A90AA8059B0A67
:103EE000184326D3404149412404009A019B0D0008
:103EF0005543641B4343E41A95B286B27543170CCD
:103F00007E43030C5F4392B25A43B61802D3012298
:103F10001204BF183204330C52197B4152429C41A7
:103F2000002C02D40022013051414008CA0710433E
:103F3000490802B06246D7079210084BD218084BC6
:103F40009A4203D212058918C919F0BD0020002A2F
:103F500001DC3900F0BD01331905F5E7FD03000070
:103F6000FE070000002200B5203200F010F8080023
:103F700000BD002200B500F00CF8CA179A4200D12B
:103F800000BDD8430121C907414000BD00220B15E7
:103F90000AD410B5944600F0A7F81414013400DADE
:103FA0000021CB17144C20470020002170476244A9
:103FB000343A0CD40C2A07DA040091409040524263
:103FC0002032D440214310BDD843D94310BD203204
:103FD00007D40C469440524220321141D040204335
:103FE00010BD0800C917203203D4524220321041BC
:103FF00010BD1800190010BDAF3F00104A00520D4F
:10400000144BD21A13DDFF2A1EDAD205CB0FDB07C1
:104010001A43C300400F0903490A084310435B00D9
:1040200001D301D0013070474308FBD2704702D062
:10403000C80FC00770470A0312130132F8D1420FAC
:10404000072AF5D1012200E0FF22C80F00028018E4
:10405000C00570478003000000210A00002104E031
:1040600000210A00C11704E00022002306E0C04638
:104070000022CB1758405940C01A994130B5184C0E
:10408000A21A002903D1010010D00020203A4C15BB
:1040900012D104D2013A001849414C0DFAD3114C07
:1040A000A24204D212058918DB07C91830BDD243D9
:1040B000520D00200021F5E703D4013A00184941D0
:1040C000FBD50B324405C00A4D052843C90A6400DC
:1040D00003D0002460416141E1E7E0D34408F8E700
:1040E00032040000FE0700000A0DCC0F531E1B0512
:1040F000C91A520503D3C943404200D30131520DBE
:1041000003D0531CDB0A07D0121B00206400611C83
:1041100089078912803A1203014BD21A70470000B6
:10412000FF03000051434343C9188C46110C83B26E
:104130004B4310B4040C614392B280B250436243CB
:104140001C041B0C001910BC59411304120CC0189C
:10415000514161447047000007B548404140484024
:1041600001E0C04607B54200120E03D0FF2A03D17A
:10417000420218D8C00DC0054A00120E03D0FF2A13
:1041800003D14A020FD8C90DC9050122414005D407
:10419000414001D5814207BD884207BD014349180E
:1041A00001D0C043001807BD00B5FFF7DBFF01D009
:1041B000002000BD012000BD00B5FFF7D3FF01D9ED
:1041C000002000BD012000BD01231B064200D218C3
:1041D00004D84A00D21801D8002070470120704747
:1041E000132310B512481C78FFF75CF80100012C6E
:1041F0000AD003DD80220F4800F05EF80E48FFF77A
:1042000049F80E4B186010BD0A4C5422200000F0F3
:1042100053F80B4B6365A365E36523666366A3668A
:10422000E36623676367A367E3672362E361E5E708
:1042300053460000A82200204C33000038380020EC
:104240004542001007B5604601880A0A0230DF2A9D
:10425000FAD1C9B2820804D302884088000410430E
:1042600000E00068014A5050039007BDA8220020DA
:1042700010B504002FF00CFB002804D0034B0419E8
:104280009C4200D810BD0248FDF794FC00000420B9
:104290008002041010B52FF005FB10BD0148042169
:1042A000014B1847C0120020B5320010014B1B68AB
:1042B00018470000C0120020014B5B68184700003F
:1042C000C012002010B5FFF7D3FF10BD10B5FFF7E7
:1042D000CFFF10BD10B5FFF7DDFF10BD10B5FFF724
:1042E000D9FF10BD10B5FFF7D5FF10BDF0B546469C
:1042F0004F46D646C0B5437D80460E001700002BC2
:104300004BD0002A32DD274B01259A464B1E002454
:104310000020994607E0335D0A2B2CD02B00013496
:104320000135BB4213DA002CF5D133780A2BF5D1D5
:1043300043461B7D002BF1D14346504602211B68AA
:10434000984728002B0001340135BB42EBDB874244
:1043500004DD4346391A1B6830189847F619013EA8
:1043600033780D3B5A42534142461375E0BCBA467E
:10437000B146A846F0BD4B461B5D0D2BCED0A042EA
:10438000DADA4346211A1B683018984743465046EC
:1043900002211B6898472800D4E703681100300009
:1043A0009847E3E7F4020410F0B5CE46474680B5DF
:1043B00083B06B460600DD1D2870FCF78DFE0023E0
:1043C0001A4A12184B41802109068B4202D301225E
:1043D000174B52421749080088463BF0ADFD164B7B
:1043E00081461C68002C14D0144F02E02469002C74
:1043F0000FD02368002BF9D03B68002B01D0A342DB
:10440000F4D1200001222900FFF770FF2469002C5D
:10441000EFD14B46002B05D1300003B0C0BCB946EC
:10442000B046F0BD40463BF027FDF5E740420F00A7
:10443000FFFFFF7F801D0020183800201C3800205F
:10444000F0B5DE4657464E464546E0B585B0070016
:1044500031F012FA0600FCF73FFE00232B4A121837
:104460004B41802109068B4202D30122284B524244
:10447000284908008B463BF05FFD274B01901C68E4
:104480009A46002C3BD0254B984602ABDD1D0A23F3
:10449000994602E02469002C17D02368002BF9D03C
:1044A00043461B68002B01D0A342F3D12000320009
:1044B0003900FFF71BFF4B462000012229002B701B
:1044C000FFF714FF2469002CE7D1019B002B18D1C2
:1044D00053461C68002C06D06368002B0BD098470D
:1044E0002469002CF8D1300005B0F0BCBB46B246C0
:1044F000A946A046F0BD2469002CEDD1F3E70028C1
:10450000F1D058463BF0B8FCE2E7C04640420F000D
:10451000FFFFFF7F801D0020183800201C3800207E
:10452000F8B557464E46DE464546E0B50E00170044
:1045300000282CD11B4B1C4D1A685B6893469A4689
:104540001A4B99461A4B98464B461C68002C03D1CF
:1045500015E02469002C12D02B68002B01D0A34257
:10456000F7D1A368002BF4D0390030009847002819
:10457000EFDDF0BCBB46B246A946A046F8BD4346B7
:104580005B6A9A4508D84246926A5A4502D301208E
:104590004042EEE79A45FAD101200021FCF7A6FD42
:1045A000D2E7C046F0FF03101C3800201838002066
:1045B00000400540F0B54646D6464F4601380D004E
:1045C0009046C0B5012841D8FCF786FD0023214A5A
:1045D00012184B41802109068B422FD21E494746B3
:1045E00008008A463BF0A8FC43468146013303D1CC
:1045F000280031F041F90700184B1C68002C14D03A
:10460000174E02E02469002C0FD02368002BF9D04C
:104610003368002B01D0A342F4D120003A002900D6
:10462000FFF764FE2469002CEFD14B46002B09D123
:104630004046E0BCBA46B146A846F0BD0122094B4F
:104640005242CBE750463BF017FCF1E701204042D5
:10465000EFE7C04640420F00801D002018380020C0
:104660001C380020FFFFFF7F012040427047C046FA
:10467000012040427047C046012040427047C0467A
:104680000300022200209A4240417047F0B5DE4606
:1046900057464E4645460122E0B5DF4D002428002E
:1046A000DE4B83B01A70DE4B1C3098461B686C6082
:1046B0009E68DC4BAC609B462B60EC602C616C61AF
:1046C000AC6101F0CFF8D84BD84F9A462B6001234C
:1046D0005B4299466B6243461B682E6238005E68F7
:1046E0005B461C303B607C60BC60FC603C617C6174
:1046F000BC6101F0B7F853463B604B467B624346D2
:104700003E62CB4E5A4630001B681C30DB6832607C
:1047100001937460B460F46034617461B46101F059
:10472000A1F8019B524633624B467362C14B326023
:104730009946180014F0F4FC4B4678221C67043BA1
:104740009C5208329C5004329C5004329C50DC67CE
:10475000B94C29002200484614321C605A6014F0FB
:1047600081FCB64D280014F0DBFC2B0000227C21DC
:10477000083B5A5204315A5004315A5004315A50AD
:1047800004315A50AE49280019601431996039003B
:104790002A675A6014F066FCAA4D280014F0C0FC89
:1047A000002278212B1F5A5208315A5004315A5096
:1047B00004315A502A67AA672200310014322800B7
:1047C0001C602A6014F04EFC9F4D280014F0A8FCD9
:1047D000002278212B1F5A5208315A5004315A5066
:1047E00004315A501C603100143428002A67AA672B
:1047F0002C6014F037FC80229449954B9201996704
:10480000944B954D1869596702431A614346280035
:1048100000241B681C309E68904B6C609B462B608C
:10482000AC60EC602C616C61AC6101F01BF88C4BEE
:104830008C4F9A462B6001235B4299466B6243463C
:104840001B682E6238005E685B461C303B607C60F3
:10485000BC60FC603C617C61BC6101F003F85346C4
:104860003B604B467B6243461B683E627E4EDB6884
:10487000300098465B461C3033607460B460F4606E
:1048800034617461B46100F0EDFF53463360434618
:1048900033624B467362754B9846180014F040FC27
:1048A00043467C221C675C67043B9C5404329C504A
:1048B00004329C5004329C5004329C506C4C2900B1
:1048C0002200404614321C605A6014F013FC694DFB
:1048D000280014F025FC2B0000228021083B5A54AC
:1048E00004315A5004315A5004315A5004315A504C
:1048F0006149280019601431996039002A676A6794
:104900005A6014F0F7FB5D4D280014F009FC0022FA
:104910007C212B1F5A5404315A5004315A5004310F
:104920005A5004315A502A676A6722003100143203
:1049300028001C602A6014F0DDFB514D280014F0A3
:10494000EFFB00227C212B1F5A5404315A500431B2
:104950005A5004315A5004315A501C6031001434FA
:1049600028002A676A672C6014F0C4FB8022454B3C
:10497000454992019967454B1869596702431A6185
:10498000434A13680133136003B0F0BCBB46B24620
:10499000A946A046F0BD2D4B3E4A48465A6014F049
:1049A000FBFB2AF0A9FF3C4B3C4A28005A6014F05C
:1049B000F3FB2AF0A1FF354B384A28005A6014F067
:1049C000EBFB2AF099FF2F4B344A28009A6014F031
:1049D000E3FB2AF091FF2C4B304A40465A6014F01A
:1049E000DBFB2AF089FF2E4B2A4A28005A6014F07C
:1049F000D3FB2AF081FF174B264A28005A6014F097
:104A0000CBFB2AF079FF124B224A28009A6014F05F
:104A1000C3FB2AF071FFC04604310020D0120020F1
:104A2000681300203C31041000270410B43000202B
:104A3000DC300020F434002080300410503300209B
:104A40008C280410DC33002068340020F03400206F
:104A500048330020D83300207C3100207C31041002
:104A6000402704102C31002054310020343700201E
:104A7000B030041084350020BC2804101436002007
:104A8000A43600207C35002030370020103600206E
:104A900014330020E0270410A0360020F027041073
:104AA00064340020064A10B513680400591C1160D4
:104AB000002B01D0200010BDFFF7E8FDFAE7C0464B
:104AC000143300207047C04610B50400FFF702FC05
:104AD000200010BD044A0B6812680360934202D0A4
:104AE0001A6801321A6070479432002001607047E2
:104AF00010B5064C2068002800D010BD2000002210
:104B000003492CF04DFA2068F7E7C0469C3200209C
:104B1000140304100048704714030410416870B572
:104B20000500002916D08368002B10D00024354ED4
:104B3000A2005058002805D043685A1E4260012B3D
:104B400036D0AB680134A342F2D8002902D0080065
:104B5000FFF7C4FBE968002916D0AB68002B10D022
:104B60000024284EA2005058002805D043685A1E41
:104B70004260012B24D0AB680134A342F2D8002953
:104B800002D00800FFF7AAFB2B690024002B0DD0F0
:104B90001859002802D0FFF7A1FB2B690434182C08
:104BA000F6D1002B02D01800FFF798FB280070BD4B
:104BB00003685B68B3420BD1FFF78CFB6968C0E701
:104BC00003685B68B34206D1FFF784FBE968D2E76C
:104BD00098476968B5E79847E968CCE72BF01AF879
:104BE0002BF052F86968ACE72BF014F82BF04CF876
:104BF000E968C0E7013102D12AF098FFFAE72AF00C
:104C00007BFEC046C94A00100A4B70B51B68056898
:104C100004009D4204D02B685A1E2A60012B01D04B
:104C2000200070BD2800FFF779FF2800FFF752FB36
:104C3000F6E7C046943200200E4A0B68126870B541
:104C400004000D00934202D01968013119602668F2
:104C5000B24204D03268511E3160012A02D02000D5
:104C6000236070BD3000FFF759FF3000FFF732FBC3
:104C70002B68F4E794320020F0B54E464546DE46F8
:104C80005746E0B50500160083B0002A00D1ECE0DD
:104C90000C68002C04D1B04B1C6801341C600C6003
:104CA000AB68671E013BBB4267D2E31C9A466B6848
:104CB0009B46AA4B9A4500D8E2E001235B42994605
:104CC0004846FFF703FB8046A868002814D002007E
:104CD0006B6801949C46810040469046019A0C0006
:104CE000002361469446CA58C2500433A342FAD105
:104CF0004346644680461800824507D953461A1A2F
:104D00008000002192004044FFF7D0FAEB6848464B
:104D10000193FFF7DBFA8146A868002811D0EB6801
:104D200002009C468100080000236146A4464C46D0
:104D30009146CA58E25004339842FAD14846A146F7
:104D40006446824507D953461A1A80000021920012
:104D50004844FFF7ABFA5346AB6043466B604B46A3
:104D6000EB605B46002B02D05846FFF7B7FA019B79
:104D7000002B02D01800FFF7B1FA7368BF000133AF
:104D800073606B689C4667443B689846002B48D02C
:104D9000734A116800293DD0A9466F480FE0556855
:104DA0002B68002B03D10368013303602B609C4206
:104DB00000D172E091680832002900D191E00B68BF
:104DC000002B03D10368013303600B609C42E6D1E2
:104DD00051684D460B68002B04D15F4A13680133BC
:104DE00013600B60013B9C0064442368002B11D0CE
:104DF00030000EF0B9FA4368804601334360206802
:104E000043685A1E4260012B00D175E0434623607F
:104E10003B689846434641465B685A1E4A60012BF0
:104E200032D0AA683E60002A1FD0002399464D4B1D
:104E300000249846E96805E04A461A60AA680134E9
:104E4000A24212D9A6008B1918680028F7D0426830
:104E5000571E4760012AEFD103685B6843450BD1B9
:104E6000FFF738FAE9688B19E6E703B0F0BCBB46F8
:104E7000B246A946A046F0BD9847E9688B19DBE722
:104E800053469B0099461BE70B68364A5B684046D1
:104E900093422FD1FFF71EFAC3E70B684D46002B54
:104EA00004D12D4A1368013313600B60013B9C0051
:104EB00064442368002BADD0300004F02FFF43681A
:104EC000804601334360206843685A1E4260012BCC
:104ED0009CD10368234A5B68934214D1FFF7FAF927
:104EE00094E7434641465B684D465A1E4A60012B93
:104EF00097D1C9E7984794E703681A4A5B689342D9
:104F0000ECD0984782E7984780E72AF083FE404636
:104F1000FFF7E4F92BF0E4FA2AF07CFE2AF0B4FE65
:104F20007FE72AF077FE2AF0AFFEA6E72AF072FEAE
:104F30002AF0AAFE6AE72AF06DFE2AF0A5FE65E7D0
:104F40002AF0A2FE2AF0D8FC0131FBD12AF0EEFDB6
:104F5000FAE7F9E7F8E7C04698320020FEFFFF1FA6
:104F600018030410C94A0010F8B5384F060038007D
:104F70000D0014002BF0ECFA00283FD1344A1168E0
:104F8000002930D033480EE057683B68002B03D12E
:104F90000368013303603B60013B9C4232D091685F
:104FA000083200291FD00B68002B03D1036801339E
:104FB00003600B60013B9C42E6D152681368002BF2
:104FC0003BD0F268A40014192168013B002929D0C4
:104FD000002D07D02B68204A5B682800934232D10D
:104FE000FFF778F9F8BDF368A4001B191A68002AC6
:104FF000EED16A6801326A601D60F3E738002BF079
:10500000C3FABBE70A68002A04D1124B1A680132BE
:105010001A600A602300541EF268A4001419216863
:105020000029D5D16968481C68602560581CD9D012
:1050300002319B0069609D50D4E706490B6801333B
:105040000B601360BDE79847CCE7C046C82400203A
:105050001803041098320020C94A001003000068A9
:10506000002804D1034A106801301060186001382C
:105070007047C04698320020F0B5DE464E464546A1
:1050800057463023E0B50600FE4C836091B00160C6
:10509000C02200212000FFF709F97460FA4CC022F9
:1050A00000212000FFF702F9F460F84C14220021DF
:1050B0002000FFF7FBF8043CF54D34612560FFF755
:1050C00029FD022201002800FFF7F6F8F14C012328
:1050D00000220021200005F0D1FF22003000EE491F
:1050E000FFF7CAFDED4C012120002BF0F9FF220053
:1050F0003000EB49FFF7C0FDEA49EB4B01220B60A2
:10510000002308008B60CB600B744B618B61CB611B
:105110000B628B8400914A600021E44C6433C154DB
:10512000E34BA060002120006260236001F0B8F82A
:10513000E04B2200190030000993FFF79DFD012389
:10514000DD4A30005360DD4BDD491360FFF794FD0D
:105150000123DC4A30005360DB4BDC491360FFF76E
:105160008BFD0123DA4C6360DA4B2360FFF7C0FC50
:10517000A06022003000D849FFF77EFDD74B012206
:105180009A4651465A60D64B50460B6000238B60BE
:10519000CB600021D34C038243618361C36103620E
:1051A00043628362C362036343634333C154CE4BA0
:1051B00081746260A060002200212000236000F062
:1051C000D7FBCA4B2200190030000593FFF754FDAE
:1051D000C74B0122994649465A60C64B48460B6068
:1051E00000238B60CB600021C34C03824361836149
:1051F000C361036243628362C362036343634333F5
:10520000C154BE4B81746260A06000220021200066
:10521000236000F05DFBBA4B2200190030000893B8
:10522000FFF72AFD0123B74A30005360B64BB74958
:105230001360FFF721FD0123B54A30005360B54BE1
:10524000B5491360FFF718FD0123B44D80226B6050
:10525000B34B00202B600023AB60EB602B616B61D4
:10526000AB61EB612B626B62AB62EB622B636B63D6
:10527000AB63EB632B646B64AB64EB642B656B65B6
:10528000AB65EB652B666B66AB66EB662B676B6796
:10529000AB67AB500432AB500432AB500432AB506E
:1052A0000432AB500432AB500432AB500432AB503A
:1052B0000432AB500432AB500432AB500432AB502A
:1052C0000432AB500432AB502A000021B8321060D7
:1052D0005160C022934CAB500432AB5429002000E3
:1052E000C33AEB6714F07AFD8F4B220019003000AF
:1052F0000293FFF7C1FC01238C4A300053608C4BB2
:105300008C491360FFF7B8FC01238B4A30005360CF
:105310008A4B8B491360FFF7AFFC8A4C01212000B8
:105320000AF09CFA220030008749FFF7A5FC874C61
:105330000121200005F076FE220030008449FFF7AD
:105340009BFC844C012120002BF0E2FE2200300067
:105350008149FFF791FC814B01229B4659465A60D7
:105360007F4B5C460B60002300208B60CB600B748E
:105370004B618B61CB6100212062616292215846B2
:1053800049006354A362774C774BA0600021200052
:105390006260236001F00AF8744B220019003000AB
:1053A0000693FFF769FC0123714A30005360714B8B
:1053B00071491360FFF760FC0123704A30005360AD
:1053C0006F4B70491360FFF757FC01236E4C63600D
:1053D0006E4B2360FFF78CFBA060220030006C490D
:1053E000FFF74AFC6B4B0122984641465A606A4BD4
:1053F00040460B6000238B60CB600B744B618B616C
:10540000CB610B624B628B62CB620B634B638B6332
:10541000CB636C21614C4354614B6260A0600022FD
:1054200000212000236000F0ABFB5E4B220019003E
:1054300030000393FFF720FC5B4F5C4B6C213B601B
:10544000002301225A4C7B54BB60FB603B747B61A0
:10545000BB61FB613B627B62BB62FB623B637B6364
:10546000BB63FB63534B7A60626000210022200023
:105470002360A76000F034FB4F4B2200190030007E
:105480009CE0C046D42F0020E42E0020D02E002027
:10549000BC270020C82700208C320020A42F002029
:1054A000F4320020EC25002024040410F82400200D
:1054B00020180410C432002094300020702E0410F4
:1054C00004330020A4300020AC2E04100C33002044
:1054D000BC2F002004180410B432002054260020F1
:1054E000B80304109C25002078180410A432002072
:1054F00098260020A8030410A825002044180410B2
:10550000A832002040250020C8180410D432002002
:1055100050250020E0180410DC320020F01E00208E
:10552000DC2E041060250020D4310020102500203E
:10553000F8180410CC32002020250020DC2F0410A5
:1055400030330020D8240020BC320020E82900207D
:1055500090320020B02F0020F8320020C81D00201B
:10556000340404100425002074250410C8320020DF
:105570009C3000200038041008330020AC3000209C
:105580003C38041010330020C82F00205825041088
:10559000B8320020DC260020D8030410B4250020F7
:1055A000CC250410AC3200204C270020C803041086
:1055B000C025002098250410B03200200493FFF786
:1055C0005BFB0123894A30005360894B8949136092
:1055D000FFF752FB0123884A30005360874B88490C
:1055E0001360FFF749FB0123864C80226360864BE2
:1055F000002023600023A360E36023616361A36153
:10560000E36123626362A362E36223636363A36370
:10561000E36323646364A364E36423656365A36550
:10562000E36523666366A366E36623676367A36730
:10563000A3500432A3500432A3500432A3500432C6
:10564000A3500432A3500432A3500432A3500432B6
:10565000A3500432A3500432A3500432A3500432A6
:10566000A3500432A35022000021B83210605160D0
:10567000C022A3500432A354E367644B21001800F6
:10568000C33A01931FF0B0FE614B30001900019A3C
:105690000793FFF7F1FA01235E4A300053605E4B37
:1056A0005E491360FFF7E8FA01235D4A300053605A
:1056B0005C4B5D491360FFF7DFFA5C4B012118007A
:1056C000019313F003FA30005949019AFFF7D4FA15
:1056D0000123584A30005360574B58491360FFF775
:1056E000CBFA0123564A30005360564B564913609B
:1056F000FFF7C2FA0123554A30005360544B554915
:105700001360FFF7B9FA0123534A30005360534B3B
:1057100053491360FFF7B0FA52460B924A460C9277
:105720005A460D924246009B30000AA90A930E92F7
:105730000F9701F063FDF26809980192FFF78EFC64
:10574000009B019A80008350F36805980093FFF74F
:1057500085FC5246009B8000C250F36808989A4628
:10576000FFF77CFC4A4653468000C250F36802981B
:105770009946FFF773FC4B468000C5500698F568C4
:10578000FFF76CFC5B46800043510398F568FFF718
:1057900065FC4346800043510498F568FFF75EFCC2
:1057A000800047510798F568FFF758FC8000445186
:1057B000300011B0F0BCBB46B246A946A046F0BDD1
:1057C00006000D0001350FD130002AF0AFF90600B8
:1057D00020000D00FFF776F9F4E7F8E7F7E7F6E7C2
:1057E000F5E7F4E7F3E7F2E72AF086F8482500202A
:1057F0001C260410D832002058250020342604101E
:10580000E0320020B81F00206C38041074250020FE
:10581000D8310020182500204C260410D03200205A
:10582000282500206C39041034330020E82400209F
:10583000C03200203025002078060410F03200200D
:1058400038250020D0060410E8320020CC250020A6
:1058500028070410EC320020D42500208007041013
:10586000E4320020F8B50023144E036033680400CE
:10587000002B15D0124D2A6822609A420AD0114E90
:1058800030002AF065FE002806D12B681A682360D4
:1058900001321A602000F8BD30002AF075FEF4E7EE
:1058A000094F02213800FFF7E7FB054D3900074893
:1058B00037602F60FFF71AF93368DCE79432002075
:1058C000A0320020C424002088250020C82E0020FB
:1058D00070B504008068002828D02E232C22437441
:1058E000A3681F4D9A740023A0681E4AC360836199
:1058F00003628362C36282604261C26142622900C4
:1059000004223030FEF7D8FCA0680422290034308D
:10591000FEF7D2FC0022144B1868A368815C9B1828
:105920003833013219700B2AF7D170BD4430FEF7BD
:10593000C9FC0E4B00220360002343608360C360F8
:10594000038243618361C361036243628362C36212
:105950000363436343338274A060C254BDE7C0460F
:10596000843E041028000410E0120020A803041054
:1059700070B504008068002828D02E232C224374A0
:10598000A3681F4D9A740023A0681E4AC3608361F8
:1059900003628362C36282604261C2614262290023
:1059A00004223030FEF788FCA0680422290034303D
:1059B000FEF782FC0022144B1868A368815C9B18D8
:1059C0003833013219700B2AF7D170BD4430FEF71D
:1059D00079FC0E4B00220360002343608360C360A8
:1059E000038243618361C361036243628362C36272
:1059F0000363436343338274A060C254BDE7C0466F
:105A0000843E041028000410E0120020B8030410A3
:105A1000094B10B5040003608068002802D00368B9
:105A20005B6898472000FFF74DF8200010BD20006C
:105A3000FFF748F829F060FF441804100D4B10B52B
:105A4000040003608068002802D003685B68984700
:105A50002000FFF737F82000FEF73CFC200010BDC7
:105A60002000FFF72FF82000FEF734FC29F044FF58
:105A7000F9E7C04644180410094B10B50400036050
:105A80008068002802D003685B6898472000FFF711
:105A900019F8200010BD2000FFF714F829F02CFFA2
:105AA000781804100D4B10B50400036080680028BE
:105AB00002D003685B6898472000FFF703F82000D6
:105AC000FEF708FC200010BD2000FEF7FBFF2000C1
:105AD000FEF700FC29F010FFF9E7C0467818041023
